:100000000C9435000C9452000C9452000C94520045
:100010000C9452000C9452000C9452000C94520018
:100020000C9452000C9452000C9452000C94520008
:100030000C9452000C9452000C9452000C945200F8
:100040000C9452000C9452000C9452000C945200E8
:100050000C9452000C9452000C9452000C945200D8
:100060000C9452000C945200970011241FBECFEF45
:10007000D8E0DEBFCDBF21E0A0E0B1E001C01D921D
:10008000A834B207E1F710E0CAE6D0E004C0229736
:10009000FE010E94B500C836D107C9F70E94AE0024
:1000A0000C94B9000C94000061E680E091E00C949F
:1000B00061000895DC01ED91FC9180818064808372
:1000C00008950F931F93CF93DF931F92CDB7DEB7A1
:1000D0008C01DC0116969C91169717968C911797B8
:1000E000981305C0ED91FC91808185FD0FC0F8014A
:1000F0008781811106C0C80169830E945A00698105
:10010000F6CF8681E80FF11D60870BC0D8011496E9
:10011000ED91FC9115976083ED91FC918081806455
:1001200080830F90DF91CF911F910F91089580EC04
:1001300090E0909301018093000181EC90E0909316
:1001400003018093020186EC90E090930501809377
:100150000401109206011092070108950E945400B4
:100160000E945900FDCFEE0FFF1F0590F491E02D86
:060170000994F894FFCF92
:00000001FF
