:100000000C9435000C9452000C9452000C94520045
:100010000C9452000C9452000C9452000C94520018
:100020000C9452000C9452000C9452000C94520008
:100030000C9452000C9452000C9452000C945200F8
:100040000C9452000C9452000C9452000C945200E8
:100050000C9452000C9452000C9452000C945200D8
:100060000C9452000C945200BA0011241FBECFEF22
:10007000D8E0DEBFCDBF21E0A0E0B1E001C01D921D
:10008000A834B207E1F710E0CAE6D0E004C0229736
:10009000FE010E94D800C836D107C9F70E94D100DE
:1000A0000C94DC000C94000061E680E091E00C947C
:1000B00061000895DC01ED91FC9180818064808372
:1000C0000895CF92DF92FF920F931F93CF93DF9308
:1000D0001F92CDB7DEB76C01DC0116969C91169786
:1000E00017968C911797981305C0ED91FC9180811C
:1000F00085FD2AC0F601068110E00F5F1F4F0F73C8
:100100001127F02EF6018781F8120FC00FB607FCF9
:10011000F9CFD601ED91FC91808185FFF3CFC60127
:1001200069830E945A006981EDCF8681E80FF11D35
:100130006087D60116960C9316971296ED91FC9156
:100140001397808180620AC0D6011496ED91FC91CC
:1001500015976083ED91FC9180818064808381E0BC
:1001600090E00F90DF91CF911F910F91FF90DF9062
:10017000CF90089580EC90E090930101809300016E
:1001800081EC90E0909303018093020186EC90E073
:1001900090930501809304011092060110920701CB
:1001A00008950E9454000E945900FDCFEE0FFF1FDA
:0C01B0000590F491E02D0994F894FFCF25
:00000001FF
